0000020291TC COMPACT RESINADO                     119800200000000
0000031210TC PHYSI POCKET 20 TP198                288100200000000
0000031314TC FASHION NANO TP188                   437600200000000
0000031363TC BORD CAPA 158X198 QUEEN ONLY         463200200000000
0000037361TC DREAM SUPERP TP 188                  329300200000000
0000040220CX BOX PB 92X197X17                     121300300000000
0000040422CX BOX 078X197X022                      121600300000000
0000040423CX BOX PB 087X187X022                   121700300000000
0000040424CX BOX 092X197X022                      121800300000000
0000040425CX BOX PB 137X187X022                   121900300000000
0000040560CX CONJUG ORTOP 137X187X037             122200300000000
0000041615EMB MAD P/POCKET 090X200                235600300000000
0000041616EMB MAD P/MOLAS 140X200                 122600300000000
0000041619EMB MAD P/MOLAS 180X210                 488400300000000
0000041836ALCA P/ TRANSPORTE                      416300200000000
0000041843ALCA P/TRANSPORTE AZUL                  416400200000000
0000044002CX MAD RECAMMIER 132X037X004            859800300000000
0000044124CX BOX PB 087X187X026                   122800300000000
0000044158CX BOX 137X187X26                       123100300000000
0000044159CX BOX PB 078X197X026                   123200300000000
0000044161CX CONJUG ORTOP 087X187X037             123400300000000
0000044169CX BOX BAU 154X196X032                  123600300000000
0000044170CX BOX BAU 134X186X032                  123700300000000
0000044171CX BOX BAU 086X186X032                  123800300000000
0000044292CX BOX 092X197X29                       124100300000000
0000044293CX BOX 078X197X029                      124200300000000
0000044297CX ORTOP PREMIUM 84X184X14              124300300000000
0000044298CX ORTOP PREMIUM 134X184X14             124400300000000
0000044299CX ORTOP PREMIUM 154X194X14             124500300000000
0000044304CX BOX PB 077X187X022                   207400300000000
0000044306CX BOX PB 127X187X022                   207500300000000
0000044312CX ORTOP PREMIUM 074X184X14             208000300000000
0000044313CX ORTOP PREMIUM 124X184X14             208100300000000
0000044314CX ORTOP PREMIUM 129X184X14             208200300000000
0000044397CX BOX BAU 182X196X32                   701300300000000
0000044399CX BOX PB 087X187X029                   701900300000000
0000044400CX BOX PB 137X187X029                   702000300000000
0000044572CX CJG 137X187X29                       773600300000000
0000044573CX CJG 087X187X29                       773500300000000
0000044628CX CAMA AUX 17                          604100300000000
0000044629KIT CAMA AUX 17                         604200300000000
0000044630CX CJ C/CAMA AUX 086X31                 616700300000000
0000044632CX CAMA AUX 05                          604900300000000
0000044650CX CAMA VAZ 136X186X025                 617100300000000
0000044652CX CAMA VAZ 086X186X025                 616900300000000
0000044653KIT CX CAMA VAZ 086X186X025 4.4652      617000300000000
0000044674CX BOX BAU 086X186X025                  623900300000000
0000044715CX ORTOP PREMIUM 182X194X14             633500300000000
0000044862CX BOX BAU 189X201X32                   634100300000000
0000044893CX BOX BAU 136X186X025                  634800300000000
0000044911CX BOX 0955X202X022                     635300300000000
0000044997KIT BAU VAZ 086X186X031  4.4998         644900300000000
0000044998CX BAU VAZ 086X186X031                  645000300000000
0000045005CX CONJUG ORTOP 107X187X037             647800300000000
0000045166CX CAB 109X123X004                      835500300000000
0000045209CX BOX PB 068X187X022                   668800300000000
0000045211CX BOX PB 127X187X029                   669400300000000
0000045213CX BOX 0955X202X029                     669200300000000
0000045215CX BOX PB 068X187X029                   669000300000000
0000045235EMB MAD P/MOLA 160X200                  235700300000000
0000045239CX CABECEIRA 187X122X10                 686700300000000
0000045248CX CABECEIRA 194X122X10                 686900300000000
0000045249CX CABECEIRA 159X122X10                 686500300000000
0000045253CX CABECEIRA 139X122X10                 686200300000000
0000045261KIT CX CABECEIRA 139X122X10  4.5253     686300300000000
0000045262KIT CX CABECEIRA 159X122X10  4.5249     686400300000000
0000045263KIT CX CABECEIRA 194X122X10  4.5248     686800300000000
0000045264KIT CX CABECEIRA 187X122X10  4.5239     686600300000000
0000045267CX BAU 086X186X036                      305900300000000
0000045268CX BAU 134X186X036                      306100300000000
0000045270KIT BAU 134X186X036  4.5268             306200300000000
0000045291CX CONJUG ORTOP 136X186X33              307400300000000
0000045292CX CONJUG ORTOP 086X186X33              307200300000000
0000045303CX BOX 0955X202X026                     323200300000000
0000045325CX BOX 092X197X026                      330200300000000
0000045385CX BOX VAZ 099X199X031                  339300300000000
0000045401CX ORTHOTEL VERS 089X181X0045           344100300000000
0000045498CX BAU 154X196X036                      350800300000000
0000045507CX BOX PB 107X197X022                   351500300000000
0000045563CX CAB FINA 089X123X004                 359700000000000
0000045565CX CAB FINA 139X123X004                 359900300000000
0000045567CX CAB FINA 159X123X004                 360100300000000
0000045569CX CAB FINA 187X123X004                 360300300000000
0000045571CX CAB FINA 194X123X004                 360500300000000
0000045573CX CAB RET 089X123X005                  360700300000000
0000045575CX CAB RET 139X123X005                  360900300000000
0000045576KIT CX CAB RET 139X123  4.5575          361000300000000
0000045577CX CAB RET 159X123X005                  361100300000000
0000045579CX CAB RET 187X123X005                  361300300000000
0000045580KIT CX CAB RET 187X123  4.5579          361400300000000
0000045581CX CAB RET 194X123X005                  361500300000000
0000045583CX CAB VOYA 089X123X0075                362500300000000
0000045585CX CAB VOYA 139X123X0075                361900300000000
0000045586KIT CX CAB VOYA 139X123  4.5585         362000300000000
0000045587CX CAB VOYA 187X123X0075                362100300000000
0000045588KIT CX CAB VOYA 187X123  4.5587         362200300000000
0000045589CX CAB VOYA 194X123X0075                362300300000000
0000045591CX CAB VOYA 159X123X0075                361700300000000
0000045593CX CAB 089X123X0075                     362700300000000
0000045594KIT CX CAB 089X123  4.5593              362800300000000
0000045595CX CAB 139X123X0075                     362900300000000
0000045597CX CB 159X123X0075                      363100300000000
0000045598KIT CX CAB 159X123  4.5597              363200300000000
0000045599CX CAB 187X123X0075                     363300300000000
0000045601CX CAB 194X123X0075                     363500300000000
0000045602KIT CX CAB 194X123   4.5601             363600300000000
0000045620CX CAB LOS 089X123X004                  366200300000000
0000045622CX CAB LOS 139X123X004                  366400300000000
0000045624CX CAB LOS 158X123X004                  366600300000000
0000045626CX CAB LOS 187X123X004                  366800300000000
0000045628CX CAB LOS 194X123X004                  367500300000000
0000045657CX BOX PB 077X187X019                   210300300000000
0000045659CX BOX PB 087X187X019                   210500300000000
0000045661CX BOX 127X187X019                      220900300000000
0000045663CX BOX 137X187X019                      222700300000000
0000045665CX BOX PB 078X197X019                   224700300000000
0000045667CX BOX PB 092X197X019                   224900300000000
0000045669CX BOX 107X197X019                      225100300000000
0000045671CX BOX PB 0955X202X019                  225300300000000
0000045673CX BOX 068X187X019                      225500300000000
0000045694CX BOX 099X199X022                      230100300000000
0000045702CX BOX PB 1920X1005X022                 237500300000000
0000045704CX BOX PB 1850X0980X022                 237700300000000
0000045706CX BOX PB 1570X0980X022                 237900300000000
0000045715CX BOX 073X197X022                      239800300000000
0000045739CX BOX 087X197X012                      238900300000000
0000045744CX BOX 099X199X012                      238100300000000
0000045746CX BOX 119X199X012                      239300300000000
0000045753CX BOX 137X187X012                      239100300000000
0000045755CX BOX 078X197X012                      238700300000000
0000045757CX BOX 089X199X012                      238500300000000
0000045762CX BOX 0955X202X012                     238300300000000
0000045764CX BOX 098X199X012                      239500300000000
0000045771CX BOX 097X197X022                      240000300000000
0000045789EMB MAD P/MOLAS 110X210                 243100300000000
0000045829CX BOX 0990X199X022                     248900300000000
0000045831CX BOX 109X199X022                      249100300000000
0000045833CX BOX 119X199X022                      249300300000000
0000045835CX BOX 133X199X022                      249500300000000
0000045837CX BOX 089X199X022                      249700300000000
0000045858CX MINI ORT 079X099X0025                263200300000000
0000045860CX MINI ORT 044X064X0025                262800300000000
0000045862CX MINI ORT 059X079X0025                263000300000000
0000045941CX ORTOP PREMIUM 104X194X14             289100300000000
0000045949CX BOX BAU 076X186X032                  289200300000000
0000045950CX BOX BAU 106X196X032                  289300300000000
0000045951CX BOX BAU 124X186X032                  289400300000000
0000045952CX BOX PB 1570X0980X029                 289500300000000
0000045953CX BOX PB 1850X0980X029                 289600300000000
0000045954CX BOX PB 1920X1005X029                 289700300000000
0000045955CX CJ C/CAMA AUX 086X186X031            290500300000000
0000046004CX BOX NV 1570X0980X022                 487800300000000
0000046015CX BOX NV 1570X0980X029                 492400300000000
0000046018CX BOX NV 1370X1870X029                 492300300000000
0000046019CX BOX NV 0870X1870X029                 492200300000000
0000046060CX BOX FC S/B 137X187X022               489900300000000
0000046061CX BOX FC S/B 1570X0980X022             490000300000000
0000046062CX BOX FC S/B 1850X0980X022             490100300000000
0000046063CX BOX FC S/B 1920X1005X022             490200300000000
0000046064CX BOX FC S/B 137X187X009               490300300000000
0000046065CX BOX FC S/B 1920X1005X009             490600300000000
0000046066CX BOX FC S/B 1850X0980X009             490500300000000
0000046067CX BOX FC S/B 1570X0980X009             490400300000000
0000046096CX PAINEL ARTE 194X064X004              830300300000000
0000046097CX PAINEL ARTE 159X064X004              830200300000000
0000046098CX PAINEL ARTE 139X064X004              830100300000000
0000046099CX CAB 159X123X004                      835700300000000
0000046100CX CAB 194X123X004                      835800300000000
0000046101CX CAB 139X123X004                      835600300000000
0000046102CX CAB 089X113X004                      835400300000000
0000046110CX CAB 089X106X004                      860700300000000
0000046111CX CAB 109X109X004                      860900300000000
0000046112CX CAB 139X106X004                      860800300000000
0000046113CX CAB 159X106X004                      861200300000000
0000046114CX CAB 194X106X004                      861700300000000
0000046115CX CAB PAINEL 089X064X004               865800300000000
0000046723CX AUX 077X170X005                      287600300000000
0000046728CX BOX 1360X0920X020                    292800300000000
0000046731CX BOX 1920X1015X015                    293100300000000
0000046747CX BOX 157X098X015                      295100300000000
0000046781CX BOX 1370X1870X012                    295600300000000
0000046782CX BOX 1570X1970X014                    295700300000000
0000046784CX BOX 1920X2020X014                    295900300000000
0000046826CX BOX 087X197X014                      410600300000000
0000046827CX BOX 099X199X014                      410700300000000
0000046828CX BOX 137X197X014                      410800300000000
0000046829CX BOX 078X197X014                      410900300000000
0000046830CX BOX 089X199X014                      411000300000000
0000046831CX BOX  955X202X014                     411100300000000
0000046863CX CJG 099X199X037                      421000300000000
0000046876CX BOX PB 087X187X009                   426000300000000
0000046877CX BOX PB 137X187X009                   426100300000000
0000046878CX BOX PB 1570X0980X009                 426200300000000
0000046879CX BOX PB 1850X0980X009                 426300300000000
0000046880CX BOX PB 1920X1005X009                 426400300000000
0000046906CX BOX FC 068X187X029                   421800300000000
0000046907CX BOX FX 087X187X029                   421900300000000
0000046908CX BOX FC 127X187X029                   422000300000000
0000046909CX BOX FC 137X187X029                   422100300000000
0000046910CX BOX FC 1570X0980X029                 422200300000000
0000046911CX BOX FC 1850X0980X029                 422300300000000
0000046912CX BOX FC 1920X1005X029                 422400300000000
0000046913CX BOX FC 068X187X022                   422500300000000
0000046914CX BOX FC 077X187X022                   422600300000000
0000046915CX BOX FC 087X187X022                   422700300000000
0000046916CX BOX FC 127X187X022                   422800300000000
0000046917CX BOX FC 137X187X022                   422900300000000
0000046918CX BOX FC 107X197X022                   423000300000000
0000046919CX BOX FC 1570X0980X022                 423100300000000
0000046920CX BOX FC 1850X0980X022                 423200300000000
0000046921CX BOX FC 1920X1005X022                 423300300000000
0000046933CX AUX 0840X1840X0050                   424600300000000
0000046946CX BOX PB 068X187X009                   426500300000000
0000046947CX BOX PB 077X187X009                   426600300000000
0000046948CX BOX PB 127X187X009                   426700300000000
0000046949CX BOX PB 107X197X009                   426800300000000
0000046956CX BOX 1070X1970X015                    428000300000000
0000046957CX BOX 1040X0950X015                    428100300000000
0000046958CX BOX 1070X1970X014                    428200300000000
0000047050CX BOX PB FC 068X187X009                440500300000000
0000047051CX BOX PB FC 077X187X009                440600300000000
0000047052CX BOX PB FC 087X187X009                440700300000000
0000047053CX BOX PB FC 127X187X009                440800300000000
0000047054CX BOX PB FC 137X187X009                440900300000000
0000047055CX BOX PB FC 107X197X009                441000300000000
0000047056CX BOX PB FC 1570X0980X009              441100300000000
0000047057CX BOX PB FC 1850X0980X009              441200300000000
0000047058CX BOX PB FC 1920X1005X009              441300300000000
0000047399CX CONJUG ORTOP 107X197X037             888700300000000
0000047404CX BOX NV 137X187X022                   442000300000000
0000047405CX BOX NV 087X188X022                   441900300000000
0000047460CX BOX FC S/B 099X199X009               812600300000000
0000047461CX BOX FC S/B 087X197X009               812500300000000
0000047462CX BOX FC S/B 087X187X009               812400300000000
0000047463CX BOX FC S/B 137X197X009               812700300000000
0000047473CX BOX EPS 1920X1005X022 S/B            826200300000000
0000047474CX BOX EPS 1570X0980X022 S/B            826100300000000
0000047475CX BOX EPS 137X187X022 S/B              826000300000000
0000047476CX BOX EPS 1570X0980X022                825800300000000
0000047477CX BOX EPS 1920X1005X022                825900300000000
0000047478CX BOX EPS 087X187X022                  825500300000000
0000047479CX BOX EPS 137X187X022                  825700300000000
0000047480CX BOX EPS 107X197X022                  825600300000000
0000047481CX MINI S/B 059X079X0025                821400300000000
0000047482CX MINI S/B 079X099X0025                821500300000000
0000047483CX BOX EPS 107X197X022 S/B              845200300000000
0000047484CX BOX EPS 077X187X022                  849100300000000
0000047485CX BOX EPS 078X197X022                  857100300000000
0000047486CX BOX EPS 127X187X022                  849200300000000
0000047487CX BOX EPS 119X199X022                  856700300000000
0000047488CX BOX EPS 109X199X022                  856600300000000
0000047489CX BOX EPS 089X199X022                  856900300000000
0000047490CX BOX EPS 098X199X022                  857500300000000
0000047491CX BOX EPS 097X197X022                  857200300000000
0000047492CX BOX EPS 099X199X022                  856500300000000
0000047493CX BOX EPS 073X197X022                  857000300000000
0000047494CX BOX EPS 095X0202X022                 857300300000000
0000047495CX BOX EPS 132X199X022                  856800300000000
0000047496CX BOX EPS 087X197X022                  857400300000000
0000060095TC ABRACADABRA FAIXA                    130100200000000
0000060113TC CONFORT S35 FAIXA                    130700200000000
0000060197TC GOLD LINE DS28 FAI                   132500200000000
0000060198TC GOLD LINE DS28 TAMPO                 132600200000000
0000060514TC LIGHT 45 FAIX                        136600200000000
0000060518BLOCO EPS PEROLA D6KG M3                468310600000000
0000060522BLOCO EPS PEROLA D7KG M3                468410600000000
0000060525BLOCO EPS PEROLA D9 KG M3               468510600000000
0000060533BLOCO EPS PEROLA D10 KG M3              468610600000000
0000060535BLOCO EPS PEROLA D14 KG M3              468710600000000
0000060537TC LIGHT 33 FAIX                        138100000000000
0000060549TC GOLD LINE D33 FAIXA                  139200200000000
0000060566TC CONFORT F/B/P D12                    140800200000000
0000060585TC TRAV ACRILON                         142200200000000
0000060592TC ARUBA BORD FAIXA                     142800200000000
0000060623TC ORTOPEDIC FAIX                       144600200000000
0000060624TC PHISY D28 FAIX                       144700200000000
0000060628TC LIG SE 28/33/FAS TAMD20              145100200000000
0000060640TC GOLD LINE ORT FAIXA                  146100200000000
0000060756TC ORTHOTEL BOX                         153100200000000
0000060802TC NOVO OURO ORTOP TAMPO                153900200000000
0000060803TC NOVO OURO ORTOP FAIXA                154000200000000
0000060883TC GOLD LINE ORT TAMP                   160600200000000
0000060893TC EXTRA FIRME TP 188                   161600200000000
0000060895TC FIRME SEL TAMPO                      161800200000000
0000060906TC SOPHISTIC BAMBU PIL                  162900200000000
0000060942TC EXTRA FIRME TP 198                   166500200000000
0000060943TC FIRME TAMPO 1,58                     166600200000000
0000060945TC BELLONA FX MALHA                     166800200000000
0000060954TC ORTOP PREMIUN TAMPO                  167700200000000
0000060974TC CHENILLE CINZA FAIX                  169700200000000
0000060985TC ABSOLUT SPR FX MALHA                 214200200000000
0000061003TC CAMA UNION ORTO TAMPO                998500200000000
0000061007TC BORD VISCOMEMORY FX                  999100200000000
0000061009TC LIGHT D45 SEL 2012 TAMPO             701100200000000
0000061013TC LIGHT ORT 2012 FAIXA                 700400200000000
0000061016TC T LATEX 2012 FAIXA                   703900200000000
0000061019TC BELLONA 2012 FAIXA                   703500200000000
0000061032CAPA EDREDON ESTAMP 1,60                709100200000000
0000061033CAPA EDREDON ESTAMP 2,20                709200200000000
0000061034CAPA EDREDON ESTAMP 2,40                709300200000000
0000061041CAPA TRAV SONECA                        709900200000000
0000061043CAPA MALHA 50X70                        710100200000000
0000061044CAPA MALHA 45X65                        710200200000000
0000061045CAPA MATELADA 45X65                     710300200000000
0000061046CAPA TRAV PERCAL MAX                    710400200000000
0000061047CAPA PERCAL 200 FIOS 50X70              711400200000000
0000061048CAPA TRAV SEIS ESTRELAS                 710500200000000
0000061051CAPA TRAV DUETO 50X70                   710700200000000
0000061053CAPA PERCAL 140 FIOS 50X140             711300200000000
0000061055REFIL TRAV CONFORT REG                  710900200000000
0000061056CAPA PERCAL 180 FIOS MISTO 50X70        711000200000000
0000061060CAPA 140 FIOS 35X40                     711500200000000
0000061061REFIL KING PREMIUM 50X70                711800200000000
0000061065CAPA MALHA RI 50X70                     711700200000000
0000061066CAPA PERCAL 180 FIOS 50X70              712100200000000
0000061069CAPA TRAV KING PREMIUM 17               717900200000000
0000061070CAPA TRAV HUG                           717700200000000
0000061071REFIL TRAV HUG                          717800200000000
0000061072TEC PROTETOR MICROFIBRA                 718000200000000
0000061073CAPA TRAV CONFORT REG                   718100200000000
0000061084TC NOB VISCOELAST FX                    726800200000000
0000061088TC MASTER SPR 2013 FX                   726400200000000
0000061092TC CAMA POCK PRO SAUD FX                727900200000000
0000061094CAPA EDREDON CS GEOMET VERDE            728800200000000
0000061095CAPA EDREDON CS MICROF FLOR AZUL        729000200000000
0000061098TC FREEDOM PILLOW                       736000200000000
0000061103CAPA TNT 25 GRS 45X45                   746900200000000
0000061104TC PHYSICAL POCKET TAMPO                744200200000000
0000061105TC ELEGANCE D33 TAMPO                   747200200000000
0000061106TC ELEGANCE D33 FAIXA                   747300200000000
0000061108TC MASTRO FAIXA                         747100200000000
0000061109CAPA C LEITO MICR BCO                   754200200000000
0000061110CAPA EDRED MICROF BCO 240X260           754000200000000
0000061111CAPA EDRED MICROF BCO 220X240           754100200000000
0000061112CAPA EDRED MICROF BCO 160X240           754300200000000
0000061113TC TP CONJ BOX FLORAL                   755000200000000
0000061114TC MATELADO ROLETE                      763000200000000
0000061115TC TAMP JUTA LABIRIN BGE                766000200000000
0000061116TC FX LIGHT ORT BEGE                    766100200000000
0000061117TC TAMPO CANNES D28                     766200200000000
0000061118TC FX CANNNES D28                       766300200000000
0000061120CAPA REFIL -MINI BODY                   766700200000000
0000061121CAPA PROT 200 FIOS -MINI BODY           766600200000000
0000061122CAPA REFIL TRAV KG 50X90                767500200000000
0000061123CAPA REFIL TRAV SUPREME                 767200200000000
0000061124CAPA TRAV SUPREME MATELADO              767300200000000
0000061126CAPA TRAV PERCAL 200 FIOS               768900200000000
0000061127CAPA EDRED CS MICR ESTAM                768800200000000
0000061128CAPA ALMOF ROLET MICR 0.85              770600200000000
0000061129CAPA ALMOF ROLET MICR 1.35              770700200000000
0000061130CAPA ALMOF ROLET MICR 1,55              770800200000000
0000061135REFIL ALMOF ROLETE 0,85                 772100200000000
0000061136REFIL ALMOF ROLETE 1,35                 772000200000000
0000061137REFIL ALMOF ROLETE 1,55                 772200200000000
0000061138TC LIGHT D28(INMETRO) TAMP              777900200000000
0000061139TC LIGHT D33(INMETRO)TAMP               778000200000000
0000061141TC CONFORTAVEL TAMP                     779900200000000
0000061142TC P SAUDE ORTOP TAMP                   779800200000000
0000061143TC MAXI CONFORTO D26 TAMP               780100200000000
0000061144TC MAIX CONFORTO D23 TAMP               780300200000000
0000061145TC MAXI CONFORTO D20 TAMPO              780500200000000
0000061146TC FREEMONT PILLOW                      613300200000000
0000061147CAPA TRAV GRAND PILLOW                  614400200000000
0000061148TC ORTHOFORT D33 FX                     391100200000000
0000061150CAPA TRAV PREMIUM                       614500200000000
0000061151CAPA TRAV PLUMES                        209500200000000
0000061152CAPA TRAV ROMA                          209400200000000
0000061153CAPA TRAV ELEGANTE                      614600200000000
0000061154TC TECHNANO PILL TOP                    225900200000000
0000061155TC ORTHOPUR 17 TP MALHA 190             227600200000000
0000061156TC ORTHOPUR 17 TP MALHA 200             227700200000000
0000061157TC BELLONA TP 190 P52                   227800200000000
0000061158TC BELLONA TP 200 P52                   227900200000000
0000061159TC ANTIDER BORD 190                     228000200000000
0000061160TC ANTIDER BORD 200                     228100200000000
0000061161TC LIBERTY 17 TP MALHA 190              228200200000000
0000061162TC LIBERTY 17 TP MALHA 200              228300200000000
0000061163TC ABSOLUT 17 TP MALHA 190              228400200000000
0000061164TC ABSOLUT 17 TP MALHA 200              228500200000000
0000061165TC OURO SPRING TP 190 P52               228600200000000
0000061166TC OURO SPRING TP  P52                  228700200000000
0000061167TC MASTER NANOL 17 TP 190 P52           228800200000000
0000061168TC MASTER NANOL 17 TP 200 P52           228900200000000
0000061169TC PRO SAUDE SPR TP 190 P52             229000200000000
0000061170TC PRO SAUDE SPR TP 200 P52             229100200000000
0000061171TC MRB CJG TP                           231300200000000
0000061172TC ESPECIALLE FX                        231400200000000
0000061173TC ESPECIALLE TP 188                    231500200000000
0000061174TC ESPECIALLE TP 198                    231600200000000
0000061175TC ESPECIALLE TP 207                    231700200000000
0000061176TC ESPECIALLE PILL                      231800200000000
0000061177TC TRANQUILITY TP 188                   231900200000000
0000061178TC TRANQUILITY TP 198                   232000200000000
0000061179TC TRANQUILITY TP 203                   232100200000000
0000061180TC TRANQUILITY FX                       232200200000000
0000061181TC FLUENCCE VISCO TP 188                232300200000000
0000061182TC FLUENCCE VISCO TP 198                232400200000000
0000061183TC FLUENCCE VISCO TP 203                232500200000000
0000061186TC ORTOPEDICO TP 188                    251600200000000
0000061187CAPA ALMOF ROLETE 1,55                  265700200000000
0000061188REFIL ALMOF ROLETE 1,55                 265800200000000
0000061189CAPA ALMOF ROLETE 1,35                  265900200000000
0000061190REFIL ALMOF ROLETE 1,35                 266000200000000
0000061191CAPA ALMOF ROLETE 0,85                  265500200000000
0000061192REFIL ALMOF ROLETE 0,85                 265600200000000
0000061193TC ALMOF ROLETE                         266100200000000
0000061194CAPA ALMOF CILINDRICA 0,85              266200200000000
0000061195REFIL ALMOF CILIND 0,85                 266300200000000
0000061196CAPA ALMOF CILINDRICA 1,35              266400200000000
0000061197REFIL ALMOF CILIN 1,35                  266500200000000
0000061198CAPA ALMOFADA CILIND 1,55               266600200000000
0000061199REFIL ALMOF CILIND 1,55                 266700200000000
0000061200CAPA ROLETE HOSP 085                    274200200000000
0000061201CAPA ROLETE HOSP 135                    274300200000000
0000061202CAPA ROLETE HOSP 155                    274400200000000
0000061203TC ELEGANCE D45 TP 198                  278700200000000
0000061204TC ELEGANCE D45 TP 203                  278800200000000
0000061205TC PRO SAUDE ULT FIR 20 TP188           286900200000000
0000061206TC PRO SAUDE ULT FIRM 20 TP198          287000200000000
0000061207TC PRO SAUDE ULT FIRM 20 TP203          287100200000000
0000061208TC CONJUG UNION SPR TP188               288400200000000
0000061209TC PHYSI POCKET 20 TP188                288000200000000
0000061210TC PHYSI POCKET 20 TP198                288100200000000
0000061211TC PHYSI POCKET 20 TP203                288200200000000
0000061212TC ROSAS TP 188                         290400200000000
0000061213TC PHYS NANO 20 TP203                   297900200000000
0000061214TC HERMITAGE TP188                      292400200000000
0000061215TC HERMITAGE TP198                      292500200000000
0000061216TC HERMITAGE TP203                      292600200000000
0000061217TC HERMITAGE FX                         292700200000000
0000061218TC BAUHAUS TP188                        293400200000000
0000061219TC BAUHAUS TP198                        293500200000000
0000061220TC BAUHAUS TP203                        293600200000000
0000061221TC BAUHUAS FX                           293700200000000
0000061222TC NOB GR BORD 188                      293800200000000
0000061223TC NOB GR BORD 198                      293900200000000
0000061224TC NOB GR BORD 203                      294000200000000
0000061225TC METROPOLITAN TP188                   294300200000000
0000061226TC METROPOLITAN TP198                   294400200000000
0000061227TC METROPOLITAN TP203                   294500200000000
0000061228TC METROPOLITAN FX                      294600200000000
0000061229TC NOB CR BORD 188                      294700200000000
0000061230TC NOB CR BORD 198                      294800200000000
0000061231TC NOB CR BORD 203                      294900200000000
0000061232TC GUGENHEIM TP188                      296600200000000
0000061233TC GUGGENHEIM TP198                     296700200000000
0000061234TC GUGGENHEIM TP203                     296800200000000
0000061235TC GUGGENHEIM FX                        296900200000000
0000061236TC TATE MODERN TP188                    296000200000000
0000061237TC TATE MODERN TP198                    296100200000000
0000061238TC TATE MODERN TP203                    296200200000000
0000061239TC TATE MODERN FX                       296300200000000
0000061240TC EVIDENCCE SPR TP190                  298200200000000
0000061241TC PHYS MEGA RES TP190                  298300200000000
0000061242TC PHYS MEGA RES TP200                  298400200000000
0000061243TC PETRUS PREMIUM TP203                 298800200000000
0000061244CAPA TRAV KING PREMIUM 20               299900200000000
0000061245REFIL TRAV KING PREMIUM 20              400000200000000
0000061246TC VISCOMEMORY TP MALHA 190             402100200000000
0000061247TC VISCOMEMORY TP MALHA 200             402200200000000
0000061248TC LIGHT NANOL 17 TP190                 401800200000000
0000061249TC LIGHT NANOL 17 TP200                 401900200000000
0000061250TC ELEGANT NANOL TP190                  401000200000000
0000061251TC ELEGANT NANOL TP200                  401100200000000
0000061252TC ELEGANT SUP TP200                    401400200000000
0000061253TC ELEGANT SUP TP190                    401500200000000
0000061254TC GOLD ULTRA TP MALHA 200              401200200000000
0000061255TC OURO PILLOW LINHO 20                 402300200000000
0000061256TC OURO SPRING 20 TP188                 402400200000000
0000061257TC OURO SPRING 20 TP198                 402500200000000
0000061258TC OURO SPRING 20 TP203                 402600200000000
0000061259TC BORD BELLONA TP 203                  409900200000000
0000061260TC IONS BRANCO TP200                    410000200000000
0000061261TC IONS BRANCO TP203                    410100200000000
0000061262TC NIMBUS TP200                         410200200000000
0000061263TC NIMBUS TP207                         410300200000000
0000061264TC NIMBUS TP205                         410400200000000
0000061265TC NIMBUS TP203                         410500200000000
0000061266CAPA TRAV LUX JACQUARD                  415300200000000
0000061267TEC ANTID MALHA BORD 188                424700200000000
0000061268TC ANTID MALHA BORD 198                 424800200000000
0000061269TC PERCAL TP 188                        424900200000000
0000061270TC ANTID PERCAL 188                     425000200000000
0000061271TC PERCAL TP 198                        425100200000000
0000061272TC ANTID PERCAL 198                     425200200000000
0000061273TC MAT PIL PERCAL 140F                  425300200000000
0000061274TC MAGNYFIC TP203                       424300200000000
0000061275TC EVIDENCCE SPR TP203                  424400200000000
0000061280TC LIBERTY 22 TP188                     431300200000000
0000061281TC LIBERTY 22 TP198                     431400200000000
0000061282TC LIBERTY 22 TP203                     431500200000000
0000061283TC PRO SAUDE SPR TP203 22               429900200000000
0000061284TC PRO SAUDE SPR TP198 22               430000200000000
0000061285TC PRO SAUDE SPR TP188 22               430100200000000
0000061286TC CAMURCA BROWN FX 22                  430200200000000
0000061287TC PRO SAUDE ORTO TP198 22              430300200000000
0000061288TC PRO SAUDE ORTO TP188 22              430400200000000
0000061289TC PRO SAUDE TP198 22                   430500200000000
0000061290TC PRO SAUDE TP188 22                   430600200000000
0000061291TC VERONA MARRON FX                     430700200000000
0000061292TC MASTER TP188 22                      430800200000000
0000061293TC TELA CINZA CHUMBO FX 22              430900200000000
0000061294TC MASTER TP198                         431000200000000
0000061295TC MASTER TP203 22                      431100200000000
0000061296TC PRO SAUDE TP203 22                   431200200000000
0000061298TC PRO SAUDE ULTRA TP198 22             432500200000000
0000061299TC PRO SAUDE ULTRA TP203 22             432600200000000
0000061300TC LINHO CINZA FX                       432700200000000
0000061301TC STAR EXCLUS TP188                    433200200000000
0000061302TC STAR EXCLUS TP198                    433300200000000
0000061303TC STAR EXCLUS TP203                    433400200000000
0000061304TC LINHO MARROM FX                      434700200000000
0000061305TC LIBERTY 22 FX                        434800200000000
0000061306TC STANDARD CINZA CH TP188              436800200000000
0000061307TC STANDARD CINZA M FX                  436900200000000
0000061308TC CONFORT AZUL TP188                   437200200000000
0000061309TC AZUL PETROL FX                       437000200000000
0000061310TC CONFORT AZUL TP198                   437100200000000
0000061311TC FASHION SUPERP TP188                 437900200000000
0000061312TC FASHION CINZA CHUMBO FX              438000200000000
0000061313TC FASHION SUPERP TP198                 438100200000000
0000061314TC FASHION NANO TP188                   437600200000000
0000061315TC FASHION CINZA CLARO FX               437700200000000
0000061316TC FASHION NANO TP198                   437800200000000
0000061317TC FASHION FIRM TP188                   437300200000000
0000061318TC MARROM FX                            437400200000000
0000061319TC FASHION FIRM TP198                   437500200000000
0000061320TC ABSOLUT 22 TP188                     441400200000000
0000061321TC ABSOLUT 22 TP198                     441500200000000
0000061322TC ABSOLUT 22 TP203                     441600200000000
0000061323CAPA 3LUG TC VELV LUXOR                 822800200000000
0000061324CAPA 2LUG TC VELVET LUXOR               822900200000000
0000061325CAPA 3LUG TC LINHO SCOT                 823000200000000
0000061326CAPA 2LUG TC LINHO SCOT                 823100200000000
0000061327CAPA 3LUG TC LINHO CINZA                823200200000000
0000061328CAPA 2LUG TC LINHO CINZA                823300200000000
0000061329TC BORD MLH CUBO GELO TP188             885300200000000
0000061331TC BORD TNT BEGE FX                     884000200000000
0000061332TC BORD TNT MARRON FX                   883900200000000
0000061333TC BORD TNT 100 FX                      442100200000000
0000061334TC BORD STAR BLACK TP198                443200200000000
0000061335TC BORD STAR BLACK TP188                443100200000000
0000061336TC BORD EXCLUSIVE TP188                 444000200000000
0000061337TC BORD EXCLUSIVE TP198                 444100200000000
0000061338TC BORD EXCLUSIVE TP203                 444200200000000
0000061339TC BORD GOLD ULTRAGEL TP188             444300200000000
0000061340TC BORD GOLD ULTRAGEL TP198             444400200000000
0000061341TC BORD GOLD ULTRAGEL TP203             444500200000000
0000061342TC BORD LIBERTY 22 TP188                444600200000000
0000061343TC BORD LIBERTY 22 TP198                444700200000000
0000061344TC BORD LIBERTY 22 TP203                444800200000000
0000061345TC BORD ORTHOPUR TP188                  444900200000000
0000061346TC BORD ORTHOPUR TP198                  445000200000000
0000061347TC BORD ORTHOPUR TP203                  445100200000000
0000061348TC BORD VISCOMEMORY TP188               445200200000000
0000061349TC BORD VISCOMEMORY TP198               445300200000000
0000061350TC BORD VISCOMEMORY TP203               445400200000000
0000061351CAPA TRAV ORTHOTEL                      447200200000000
0000061352CAPA MALHA TUBOLAR                      447000200000000
0000061353TC BORD STAR BLACK TP203                446500200000000
0000061354TC BORD ORTHOTEL DUPLA TP200            451500200000000
0000061355TC BORD ORTHOTEL DUPLA TP198            451400200000000
0000061356TC BORD ORTHOTEL DUPLA TP203            451600200000000
0000061357TC BORD ORTHOTEL DUPL TP188             451300200000000
0000061358TC BORD CAPA 78X188 SOLT ONLY           463700200000000
0000061359TC BORD CAPA 88X188 SOLT ONLY           463600200000000
0000061360TC BORD CAPA 128X188 VIUVA ONLY         463500200000000
0000061361TC BORD CAPA 138X188 CASAL ONLY         463400200000000
0000061362TC BORD CAPA 108X198 SOLT ONLY          463300200000000
0000061363TC BORD CAPA 158X198 QUEEN ONLY         463200200000000
0000061364TC BORD CAPA 186X198 KING ONLY          463100200000000
0000061365TC BORD CAPA 193X203 SPKI ONLY          463000200000000
0000061366TC BORD CAPA 78X188 SOLT SELF           462900200000000
0000061367TC BORD CAPA 88X188 SOLT SELF           462800200000000
0000061368TC BORD CAPA 128X188 VIUV SELF          462700200000000
0000061369TC BORD CAPA 138X188 CASAL SELF         462600200000000
0000061370TC BORD CAPA 108X198 SOLT SELF          462500200000000
0000061371TC BORD CAPA 158X198 QUEEN SELF         462400200000000
0000061372TC BORD CAPA 186X198 KING SELF          462300200000000
0000061373TC BORD CAPA 193X203 SPKI SELF          462200200000000
0000061374TC BORD CAPA 78X188 SOLT PICG           464500200000000
0000061375TC BORD CAPA 88X188 SOLT PICG           464400200000000
0000061376TC BORD CAPA 128X188 VIUVA PICG         464300200000000
0000061377TC BORD CAPA 138X188 CASAL PICG         464200200000000
0000061378TC BORD CAPA 108X198 SOLT PICG          464100200000000
0000061379TC BORD CAPA 158X198 QUEEN PICG         464000200000000
0000061380TC BORD CAPA 186X198 KING PICG          463900200000000
0000061381TC BORD CAPA 193X203 SPKI PICG          463800200000000
0000061382TC CREATIVE VETOR TAMPO                 460800200000000
0000061383CAPA TRAV GOLD LIFE                     462100200000000
0000061384CAPA TRAV GIANT PIL MICROF              462000200000000
0000061386CAPA MALHA ANATOMIC                     474300200000000
0000061391TC BORD CAPA 40X60 MAQ PICG             467800200000000
0000061392TC BORD CAPA 40X60 MAQ SELF             468000200000000
0000061393TC BORD CAPA 40X60 MAQ ONLY             467900200000000
0000061397TC NEW CARING TP198                     473100200000000
0000061398TC NEW CARING TP188                     471300200000000
0000061399TC TNT BORD 200 TP 188                  470700200000000
0000061400TC OURO SPRING 23 PILLOW                481500200000000
0000061401TC MASTER NANO FX 23                    475700200000000
0000061402TC MASTER TP188 23                      475800200000000
0000061403TC MASTER TP198 23                      475900200000000
0000061404TC MASTER TP203 23                      476000200000000
0000061405TC MASTER POCKET FX 23                  475600200000000
0000061406TC OURO SPRING 23 FX                    476600200000000
0000061407TC ABSOLUT 23 TP198                     476300200000000
0000061408TC ABSOLUT 23 FX                        476100200000000
0000061409TC ABSOLUT 23 TP188                     476200200000000
0000061410TC DUO VISCO 23 TP203                   477000200000000
0000061411TC DUO VISCO 23 TP198                   476900200000000
0000061412TC BORD ROBUST TP188                    476800200000000
0000061413TC DUO VISCO 23 FX                      476700200000000
0000061414TC ORTHOPUR 23 FX                       476500200000000
0000061415TC ABSOLUT 23 TP203                     476400200000000
0000061416TC BELLONA 23 TP198                     474600200000000
0000061417TC BELLONA 23 TP203                     474700200000000
0000061418TC BELLONA 23 TP188                     474500200000000
0000061419TC GENEVE 23 FX                         474800200000000
0000061420TC ORION 23 FX                          475200200000000
0000061421TC ORION 23 TP188                       475300200000000
0000061422TC ORION 23 TP198                       475400200000000
0000061423TC ORION 23 TP203                       475500200000000
0000061424TC GENEVE 23 TP188                      475000200000000
0000061425TC GENEVE 23 TP198                      474900200000000
0000061426TC GENEVE 23 TP203                      475100200000000
0000061429TC AUSTRIA FX                           491400200000000
0000061431TC BORD SAUDE VISCO FX                  483800200000000
0000061440TC BORD MALHA TRAC FX                   483900200000000
0000061442TC BORD LACE TP198                      491500200000000
0000061443TC BORD LACE TP188                      491600200000000
0000061445TC BORD FIT D23 TP188                   497600200000000
0000061446TC BORD FIT D28 TP188                   497700200000000
0000061447TC BORD FIT D45 TP188                   497800200000000
0000061448TC BORD FIT D33 TP198                   803500200000000
0000061449TC BORD FIT D33 TP188                   497900200000000
0000061451TC BORD FIT 45 TP198                    802000200000000
0000061452TC BORD FIT POCKET TP188                498000200000000
0000061453TC BORD FIT POCKET TP198                802800200000000
0000061454TC BORD FIT POCKET TP203                802900200000000
0000061455TC BORD FIT SPRING TP198                803200200000000
0000061456TC BORD VELUDO ALUM FX                  498100200000000
0000061457TC BORD FIT SPRING TP188                498200200000000
0000061458TC BORD FIT PROG TP188                  498300200000000
0000061459TC BORD FIT SPRING TP203                803300200000000
0000061460TC BORD FIT PROG TP203                  802600200000000
0000061461TC BORD FIT PROG TP198                  802500200000000
0000061462TC BORD FIT ORT TP198                   805900200000000
0000061463TC BORD FIT ORTOP TP188                 498400200000000
0000061464TC BORD EXCLUSIVE TP198                 499900200000000
0000061465TC BORD MLH PIXE CARAM FX               498500200000000
0000061466TC BORD EXCLUSIVE TP188                 498600200000000
0000061467TC BORD EXCLUSIVE TP203                 499800200000000
0000061468TC BORD NEW FREEDOM TP188               498700200000000
0000061469TC BORD MLH PIXE PTO FX                 498800200000000
0000061470TC BORD MLH PIXE PTO PILL               498900200000000
0000061471TC BORD NEW FREEDOM TP198               499000200000000
0000061472TC BORD NEW FREEDOM TP203               499100200000000
0000061473TC BORD FLAT CLEAN TP203                497400200000000
0000061474TC BORD EXCL SPR TP188                  499200200000000
0000061475TC BORD EXCL FOAM TP188                 499300200000000
0000061476TC BORD ORTHOPEDIC TP188                499400200000000
0000061477TC BORD EXCL SLEEP TP188                499500200000000
0000061478TC BORD EXCL SLEEP TP198                802400200000000
0000061479TC BORD EXCL SLEEP TP203                802700200000000
0000061480TC BORD EXCL SPRING TP198               803000200000000
0000061481TC BORD FIT D28 TP198                   803600200000000
0000061483TC BORD EXCL SPRING TP203               803100200000000
0000061487TC BORD FIT 45 TP1981ESP                802200200000000
0000061489TC BORD FIT 45 TP1881ESP                802300200000000
0000061490TC BORD FIT 45 TP203                    802100200000000
0000061491TC BORD EXCLUSIVE FOAM TP203            805800200000000
0000061492TC BORD EXCLUSIVE FOAM TP198            805700200000000
0000061493TC BORD ORTHOPEDIC TP198                806000200000000
0000061494TC BS ORT BOUTIQUE FX                   804900200000000
0000061497TC ANTID MALHA BORD 203                 806600200000000
0000061499TC NEW TNT BORD 188                     811400200000000
0000061500TC BORD CAPA 079X198 ZEITZ              817200200000000
0000061501TC BORD CAPA 096X203 ZEITZ              817300200000000
0000061502TC BORD CAPA 108X198 ZEITZ              811600200000000
0000061505TC BORD CAPA 138X188 ZEITZ              843400200000000
0000061506TC BORD LIST CINZA FX                   850700200000000
0000061507TC BORD LIST MARROM FX                  850600200000000
0000061508TC BORD PRO SAUDE TP188                 850400200000000
0000061509TC PRO SAUDE TP198 2.5                  875000200000000
0000061510TC PRO SAUDE TP203 2.5                  875100200000000
0000061511TC NEW TNT BORD 203                     852200200000000
0000061513TC BORD ROBUST TP198                    879900200000000
0000061514TC BORD FX 100 CINZA                    877800200000000
0000061515TC BORD FX 100 GRA MARROM               888300200000000
0000061516TC BORD FX 100 MARROM                   888500200000000
0000061517TC BORD LINHA 100 TP188                 888000200000000
0000061518TC BORD LINHA 100 TP198                 888100200000000
0000061519TC BORD LINHA 100 TP203                 888200200000000
0000061520TC BORD MLH BOL TP188                   878400200000000
0000061521TC BORD MLH BOL TP198                   878500200000000
0000061522TC BORD ORTHOPUR TP188                  875500200000000
0000061523TC BORD ORTHOPUR TP198                  875600200000000
0000061524TC BORD ORTHOPUR TP203                  875700200000000
0000061525TC BORD MALHA GEOM BG TP188             882300200000000
0000061528TC VENTURY VISCO FX                     882800200000000
0000061550TC BORD FX ABS HIB                      879800200000000
0000061551TC BORD HIB TP203                       879700200000000
0000061552TC BORD HIB TP198                       879600200000000
0000061553TC BORD HIB TP188                       879500200000000
0000061554TC BORD MAGESTIC TP188                  877100200000000
0000061555TC BORD MAGESTIC TP198                  877200200000000
0000061556TC BORD MAGESTIC TP203                  877300200000000
0000061557TC BORD MAGESTIC TP200                  877400200000000
0000061927TC PRO SAUDE ULTR TP188 22              432400200000000
0000064050CAPA TRAV TOQUE DE SEDA                 711200200000000
0000064051REFIL ALMOF CAMURCA 1,55                807000200000000
0000064052CAPA ALMOF CAM MARRON 1,55              808700200000000
0000064053REFIL ALMOF CAMURCA 1,35                806800200000000
0000064054CAPA ALMF CAM PRETO 1,35                807800200000000
0000064055CAPA ALMOF CAM PRETO 1,55               808000200000000
0000064056CAPA ALMOF CAM PRETO 0,85               807600200000000
0000064057REFIL ALMOF CAMURCA 0,85                806300200000000
0000064058CAPA ALMOF CAM MARROM 1,35              808500200000000
0000064059CAPA ALMOF CAM MARRON 0,85              808300200000000
0000064060CAPA ALMOF CAM BEGE 0,85                806500200000000
0000064061CAPA ALMOF CAM BEGE 1,35                807100200000000
0000064062CAPA ALMOF CAM BEGE 1,55                807300200000000
0000064063CAPA ALMOF CAM CINZA 1,55               806900200000000
0000064064CAPA ALMOF CAM CINZA 1,35               806700200000000
0000064065CAPA ALMOF CAM CINZA 0,85               806200200000000
0000064066CAPA ALMOF NOBUCK 155 CREAM             810000200000000
0000064067CAPA ALMOF NOBUCK 155 GRAY              810300200000000
0000064068CAPA ALMOF NOBUCK 155 BROWN             809700200000000
0000064069CAPA ALMOF NOBUCK 135 CREAM             809900200000000
0000064070CAPA ALMOF NOBUCK 155 GRAY              810200200000000
0000064071CAPA ALMOF NOB 155 BLACK                808800200000000
0000064072CAPA ALMOF NOBUCK 135 BROWN             809600200000000
0000064073CAPA ALMOF NOB 085 BROWN                809500200000000
0000064074CAPA ALMOF NOBUCK 085 CREAM             809800200000000
0000064075CAPA ALMOF NOB 135 BLACK                808400200000000
0000064076CAPA ALMOF NOBUCK 085 GRAY              810100200000000
0000064077CAPA ALMOF NOB 085 BLACK                809000200000000
0000064078REFIL ALMOF NOB 1,55                    808900200000000
0000064079REFIL ALMOF NOB 1,35                    808600200000000
0000064080REFIL ALMOF NOB 0,85                    808100200000000
0000064081CAPA ALMOF LOMBAR COML                  812100200000000
0000064082CAPA ALMOF LOMBAR                       811900200000000
0000064083CAPA ALMOF ORIFICIO RED                 815300200000000
0000064084CAPA ALMOF ORIFICIO QUAD                815400200000000
0000064085CAPA ALMOF C/ORIF QUD COML              816900200000000
0000064086CAPA ALMOF C/ORIF RED COML              816800200000000
0000064087CAPA ALMOF PESCOCO                      866300200000000
0000064088CAPA ALMOFADA COCCIX                    866200200000000
0000064089CAPA EDREDOM 200F EGIP AZUL 1,60        879100200000000
0000064090CAPA EDREDOM 200F EGIP AZUL 2,20        879100200000000
0000064091CAPA EDREDOM 200F EGIP AZUL 2,40        879100200000000
0000064092CAPA EDREDON 200F EGIP BCO 1,60         879300200000000
0000064093CAPA EDREDON 200F EGIP BCO 2,20         879300200000000
0000064094CAPA EDREDON 200F EGIP BCO 2,40         879300200000000
0000064095CAPA EDRED 200F EGIP ROSE 1,60          879200200000000
0000064096CAPA EDRED 200F EGIP ROSE 2,20          879200200000000
0000064097CAPA EDRED 200F EGIP ROSE 2,40          879200200000000
0000066235CAPA TRAV ESSENCE 50X90                 681500200000000
0000066236CAPA TRAV ROYAL PILLOW                  681400200000000
0000066893TC TP CONJUG BOX ORTOB SPR              774200200000000
0000066894TC MAXI CONFORTO D45 TAMP               782000200000000
0000066895TC MAXI CONFORTO D33 TAMP               781900000000000
0000066896TC MAXI CONFORTO D28 TAMP               782100200000000
0000066898TC STANDARD TAMPO                       781700200000000
0000066899TC FLORAL DREAM TAMPO                   781600200000000
0000066900TC DREAM ULTRA HARD TAMPO               782200200000000
0000066901TC PHYS MEGA RES(INMETRO) TP            782400200000000
0000066902TC PHYS SUPER (INMETRO) TP              782500200000000
0000066904CAPA TRAV 200 FIOS SUPER                782700200000000
0000066905CAPA TRAV MAX CONFORT                   782800200000000
0000066906CAPA TRAV MALHA PERNAMB                 782900200000000
0000066907TC SONATA ULTRA HARD C/PIL              783600200000000
0000066908CAPA TRAV MAX MALHA                     784400200000000
0000066909CAPA TRAV HI CONFORT                    784300200000000
0000066911CAPA TRAV PLUMA                         784200200000000
0000066912TC STANDARD FAIXA                       785000200000000
0000066913TC PERFIL FORCE TP                      784900200000000
0000066914TC VIENA TAMPO                          785800200000000
0000066919TC STAR D28 TAMPO                       786800200000000
0000066921TC RELAX CONSIST TP                     789100200000000
0000066922TC RELAX SUPER CONSIST TP               789000200000000
0000066923TC RELAX ULTR CONSIST TP                788900200000000
0000066924TC ABRACADABRA TP                       789800200000000
0000066925TC PRO SAUDE ULT FIRM TP 188            791600200000000
0000066927CAPA PERCAL 200 F ZELO 50X70            793400200000000
0000066928CAPA TRAV 180 F ZELO 50X90              793300200000000
0000066929CAPA MALHA ZELO                         793200200000000
0000066931TC SONATA SUMMER TAMP01                 793600200000000
0000066933TC SENIOR ORTOP TAMP01                  794000200000000
0000066934TC SENIOR ORTOP TAMP02                  794100200000000
0000066935REFIL ALMOFADA ANIK                     794400200000000
0000066938TC SENIOR ORTOPIL TP INVERNO            796600200000000
0000066939TC SENIOR ORTOPIL FX                    796700200000000
0000066940TC SENIOR ORTOPIL TP VERAO              796500200000000
0000066941TC CONJUG CS BLACK TP                   798100200000000
0000066944CAPA TRAV. TNT ANIK                     798400200000000
0000066945TC SUBLIME BORD TAMP                    600200200000000
0000066947TC ELETROCONJUGADO TAMPO                601000200000000
0000066948TC ELETROSTAR FAIXA                     601100200000000
0000066949TC BORD TRAV MICRO CONF REGULAVEL       605300200000000
0000066950TC BORD TRAV MICRO HUG                  605500200000000
0000066952CAPA TRAV MALHA MEDIO                   605800200000000
0000066953CAPA TRAV MALHA MACIO                   605600200000000
0000066954CAPA TRAV MALHA FIRME                   605700200000000
0000066955TC PHYSICAL SPR TAMP 1,58               606300200000000
0000066956TC PRO SAUDE ULT FIRM TP 198            606200200000000
0000066958TC PHYSICAL POCK TAMP 1,58              606400200000000
0000066959TC BABY NANA NENE D18 TP                607400200000000
0000066960TC BABY NANA NENE D18 FX                607300200000000
0000066961CAPA TRAV DESCANSO 45X65                608000200000000
0000066962CAPA TRAV TOQUE DE PESSEGO              608200200000000
0000066963TC CLASSIC HOME SPR TP                  610300200000000
0000066964CAPA TRAV AMAN                          610900200000000
0000066965REFIL TRAV AMAN                         611000200000000
0000066966CAPA TRAV ONE MALHA                     611200200000000
0000066967TC PERS NANOL TP MALHA                  611700200000000
0000066968TC PERS NANOL ORTOP                     611600200000000
0000066969TC PERS POCK LATEX TP MALHA             611500200000000
0000066971CAPA TRAV SUAVE UNIT                    612100200000000
0000066973CAPA TRAV CASADINHO                     615800200000000
0000066974TC MAGNYFIC FX 1                        621800200000000
0000066975TC MAGNYFIC FX 2                        621900200000000
0000066976TC MAGNYFICI TAMPO                      622000200000000
0000066978TC CANNES D20 FX                        622200200000000
0000066979TC EXCLUSIVE ORTOP TP                   627700200000000
0000066980TC PHYS RESIST FX                       627800200000000
0000066981TC PHYS SUPER RESIST FX                 627900200000000
0000066982TC PHYS ULTRA RESIST FX                 628000200000000
0000066983TC PHYS MEGA RESIST TP                  628100200000000
0000066984TC PHYS MEGA RESIST FX                  628200200000000
0000066985TC LIGHT D23 TP                         628300200000000
0000066986TC LIGHT D28 FX                         628500200000000
0000066987TC LIGHT D23 FX                         628400200000000
0000066988TC LIGHT D33 FX                         628600200000000
0000066989TC LIGHT D45 FX                         628700200000000
0000066990CAPA TRAV AMORE                         627400200000000
0000066991REFIL TRAV CONFOR LINE                  627500200000000
0000066992CAPA TRAV CONFORT LINE                  627600200000000
0000066994TC ORION FX                             628900200000000
0000066995TC GENEVE TP                            629000200000000
0000066996TC GENEVE FX                            629100200000000
0000066998TC LIBERTY AZUL FX                      629500200000000
0000066999TC POCKET DUO VISCO TP                  629300200000000
0000067000TC OURO SPRING 2015 TP                  629400200000000
0000067001TC OURO SPRING 2015 FX                  629600200000000
0000067002TC SILVER PREMIUM                       635500200000000
0000067003TC TREVISO TAMPO                        636000200000000
0000067004TC TREVISO FX                           636100200000000
0000067007TC HARMONY D20 FX                       636400200000000
0000067008TC HARMONY D23 FX                       636500200000000
0000067009TC HARMONY D23 TP                       636600200000000
0000067010TC HARMONY D28 TP                       636700200000000
0000067011TC HARMONY D28 FX                       636800200000000
0000067012TC HARMONY D33 TP                       636900200000000
0000067013TC HARMONY D33 FX                       637000200000000
0000067014TC MUNIQUE TAMPO                        637100200000000
0000067015TC POINT TAMPO                          642700200000000
0000067016TC POINT FAIXA                          642800200000000
0000067017TC IMPERADOR SPRING TP                  642500300000000
0000067021CAPA TRAV PERC 200 F RCHLO              644000200000000
0000067022TC COMFORT PRO SPRING TP                646000200000000
0000067023TC ROMANZZA SPRING TP                   645800200000000
0000067024TC ROMANZZA SUPERPOCKET TP              645900200000000
0000067025TC REVITALE SPRING TP                   645600200000000
0000067027CAPA TRAV PERNAMB P-200 F               646200200000000
0000067028CAPA TRAV JASMIN                        650100200000000
0000067029CAPA TRAV BONJOUR                       649900200000000
0000067030CAPA P/REFIL ALMOF                      652300200000000
0000067031TC SONATA GOLD FAIXA                    653700200000000
0000067032TC PETRUS PREMIUM FAIXA                 653800200000000
0000067033CAPA TRAV AMAN 50X130                   654000200000000
0000067034REFIL TRAV AMAN 50X130                  653900200000000
0000067035TC CIRCULOS VINHO TAMPO                 655200200000000
0000067036TC BORDO ESTAMP TAMPO                   655100200000000
0000067037CAPA TRAV PERCAL COTTON                 656200200000000
0000067038CAPA TRAV ULTRA SONO                    656100200000000
0000067042CAPA TRAV MASTER PLUMA                  656000200000000
0000067043TC FLORAL BORDO TP                      657100200000000
0000067044TC FLORAL VINHO TP                      657200200000000
0000067049CAPA TRAV MAGLIA MACIO                  659700200000000
0000067050CAPA TRAV MAGLIA MEDIO                  659900200000000
0000067051CAPA TRAV MAGLIA FIRME                  660100200000000
0000067052CAPA TRAV DUE                           663200200000000
0000067053CAPA TRAV FLORAL 140                    662800200000000
0000067054CAPA TRAV SONAR                         663000200000000
0000067055CAPA TRAV COTTON 200 SOFT               663400200000000
0000067056CAPA TRAV NAPOLES                       662600200000000
0000067057TC ABSOLUT 17 TP MALHA 188              665000200000000
0000067058TC ABSOLUT 17 TP MALHA 198              665100200000000
0000067059TC ABSOLUT 17 TP MALHA 203              665200200000000
0000067060TC ABSOLT 17 FX                         665300200000000
0000067061TC MASTER SUPERPOCK 17 TP 188           666800200000000
0000067062TC MASTER SUPERPOCK 17 TP 198           666900200000000
0000067063TC MASTER SUPERPOCK 17 FX               667000200000000
0000067064TC PS PRO FORCA 17 TP MAL188            666400200000000
0000067065TC PS PRO FORCA 17 TP MAL198            666500200000000
0000067066TC PS PRO FORCA 17 TP MAL203            666600200000000
0000067067TS PS PRO FORCA 17 FX                   666700200000000
0000067068TC ORTHOPUR 17 TP MALHA 188             666000200000000
0000067069TC ORTHOPUR 17 TP MALHA 198             666100200000000
0000067070TC ORTHOPUR 17 TP MALHA 203             666200200000000
0000067071TC ORTHOPUR 17 FX                       666300200000000
0000067072TC LIBERTY 17 TP MALHA 188              665600200000000
0000067073TC LIBERTY 17 TP MALHA 198              665700200000000
0000067074TC LIBERTY 17 TP MALHA 203              665800200000000
0000067075TC LIBERTY 17 FX                        665900200000000
0000067076TC CJG EVORA ORTOP FX                   665400200000000
0000067077TC ANTIDER BORD 198                     665500200000000
0000067078TC MASTER NANO 17 TP 188                667100200000000
0000067079TC MASTER NANO 17 TP 198                667200200000000
0000067080TC MASTER NANOLASTIC FX                 667300200000000
0000067081CAPA TRAV BELO SONO 50X70               668600200000000
0000067082CAPA TRAV THE LUX                       669700200000000
0000067083CAPA TRAV TWEE                          672400200000000
0000067087TC LIGHT NANO 17 FX                     677500200000000
0000067090TC LIGHT SUPERPOCKET 17 FX              678100200000000
0000067091TC LIGHT ORTOP TP 188                   678300200000000
0000067092TC LIGHT ORTOP 17 TP 198                678400200000000
0000067093TC LIGHT ORTOP 17 FX                    678500200000000
0000067094TC EXCLUS ORTOP TP 188                  676300200000000
0000067095TC EXCLUS ORTOP TP 198                  676400200000000
0000067096TC EXCLUS 17 TP MALHA 188               675900200000000
0000067097TC EXCLUS 17 TP MALHA 198               676000200000000
0000067098TC EXCLUS 17 TP MALHA 203               676100200000000
0000067099TC EXCLUSIVE 17 FX                      676200200000000
0000067102TC SLEEP KING 17 TP MAL 188             676500200000000
0000067103TC SLEEP KING 17 TP MAL 198             676600200000000
0000067104TC SLEEP KING 17 TP MAL 203             676700200000000
0000067105TC SLEEP KING 17 FX SUP                 676800200000000
0000067106TC SLEEP KING 17 FX INF                 676900200000000
0000067110TC VISCOMEM 17 TP MALHA 188             674800200000000
0000067111TC VISCOMEM 17 TP MALHA 198             674900200000000
0000067112TC VISCOMEM 17 TP MALHA 203             675000200000000
0000067113TC VISCOMEM 17 FX                       675100200000000
0000067117TC HIGHFOAM 17 TP MALHA 188             675200200000000
0000067118TC HIGHFOAM 17 TP MALHA 198             675300200000000
0000067119TC HIGHFOAM 17 TP MALHA 203             675400200000000
0000067120TC HIGHFOAM 17 FX                       675500200000000
0000067121TC GOLD ULTRAGEL TP MAL 188             678800200000000
0000067122TC GOLD ULTRA TP MALHA 198              678900200000000
0000067123TC GOLD ULTRA TP MALHA 203              679000200000000
0000067124TC GOLD ULTRAGEL FX                     679100200000000
0000067127CAPA TRAV FIBER TEAM 45X65              677200200000000
0000067128CAPA TRAV APEGO 50X70                   677800200000000
0000067129TC PETRUS PREMIUM TP 188                684600200000000
0000067130TC ELEGANT NANOLAST TP 188              685800200000000
0000067131TC CLASSIC GOLD TP 188                  685500200000000
0000067132TC SONATA SPRING ORTOPIL TP             685300200000000
0000067133TC SONATA GOLD TP 188 01                684900200000000
0000067134TC PETRUS PREMIUM TP 198                684700200000000
0000067135TC PETRUS PREMIUM FX                    684800200000000
0000067136TC PETRUS PREMIUM PILLOW                686100200000000
0000067137TC ELEGANT NANOLAST TP 198              685900200000000
0000067139TC PETRUS SUPERPOCK FX                  686000200000000
0000067141TC SONATA GOLD TP 198 01                685100200000000
0000067142TC SONATA GOLD TP 198 02                685200200000000
0000067143TC SONARA SPRING ORTOPIL FX             685400200000000
0000067144TC CLASSIC GOLD TP 198                  685600200000000
0000067145TC SONATA GOLD FX                       685700200000000
0000067146TC ORTHOTEL SUPERLUXO TP 188            687000200000000
0000067147TC ORTHOTEL SUPERLUXO TP 198            687100200000000
0000067148TC ORTHOTEL SUPERLUXO TP 200            687200200000000
0000067149TC ORTHOTEL SUPERLUXO FX                687300200000000
0000067150TC ORTHOTEL LUXO TP 188                 687400200000000
0000067151TC ORTHOTEL LUXO TP 200                 687500200000000
0000067152TC ORTHOTEL LUXO TP 198                 687600200000000
0000067153TC ORTHOTEL LUXO FX                     687700200000000
0000067154TC CJG SPRING DREAM TP 188              688100200000000
0000067155TC BORD D45 BLACK PREM P52              689600200000000
0000067156TC IMPERADOR SPR TP 188 P52             689300200000000
0000067157TC IMPERADOR SPR TP 198 P52             689400200000000
0000067158TC IMPERADOR SPR FX P52                 689500200000000
0000067159TC CLASSI EUROP TP P52                  690800200000000
0000067160TC PHYSI SUP FX02 P52                   690400200000000
0000067161TC PHYSI SUP FX01 P52                   690500200000000
0000067162TC LIGHT BONNEL TP 188 P52              690600200000000
0000067163TC LIGHT BONNEL TP 198 P52              690700200000000
0000067164TC PHYS POCKET TP 188 P52               690300200000000
0000067165TC DREAM PREM TP 18 P52                 690100200000000
0000067166TC DREAM PREM TP 198 P52                690200200000000
0000067167TC DREAM NANOL TP 198 P52               689900200000000
0000067168TC DREAM NANOL TP 188 P52               690000200000000
0000067169TC CLASSIC PREM TP 188 P52              689700200000000
0000067170TC CLASSIC PREM TP 198 P52              689800200000000
0000067171TC LIGHT NANO 17 TP 188 P52             691500200000000
0000067172TC LIGHT NANO 17 TP 198 P52             691600200000000
0000067173TC LIGHT SUPERP 17 TP 188 P52           691700200000000
0000067174TC LIGHT SUPERP TP 198 P52              691800200000000
0000067177TC NOB POCKET BLUE FX                   692100200000000
0000067178TC GENEVE TP 188 P52                    693700200000000
0000067179TC GENEVE TP 198 P52                    693800200000000
0000067180TC GENEVE TP 203 P52                    693900200000000
0000067181TC GENEVE FX P52                        694000200000000
0000067182TC OURO SPRING TP 188 P52               694100200000000
0000067183TC OURO SPRING TP 198 P52               694200200000000
0000067184TC OURO SPRING TP 203 P52               694300200000000
0000067185TC OURO SPRING FX P52                   694400200000000
0000067186TC ELEGANT NANOL TP 188 P52             694500200000000
0000067187TC ELEGANT NANOL TP 198 P52             694600200000000
0000067188TC ELEGANT NANOL FX 01 P52              694700200000000
0000067189TC PHYS NANOL TP 188 P52                694800200000000
0000067190TC PHYS NANO TP 198 P52                 694900200000000
0000067191TC PHYS NANOL FX P52                    695000200000000
0000067192TC MASTER NANO 17 TP 188 P52            695102000000000
0000067193TC MASTER NANO 17 TP198 P52             695200200000000
0000067194TC MAESTRO D33 TP 188 P52               695300200000000
0000067196TC VENTURA PREM TP01 188 P52            695500200000000
0000067197TC VENTURA PREM TP01 198 P52            695600200000000
0000067198TC VENTURA PREM TP02 188 P52            695700200000000
0000067199TC VENTURA PREM TP 02 198 P52           695800200000000
0000067200TC PRIMAVERA AZUL TP 188 P52            695900200000000
0000067201TC PRIMAVERA AZUL TP 198 P52            696000200000000
0000067202TC BERLIM TP 188 P52                    696100200000000
0000067203TC BERLIM TP 198 P52                    696200200000000
0000067204TC HARMONY D28 FX P52                   696300200000000
0000067205TC SILVER PREM TP 188 P52               696700200000000
0000067206TC SILVER PREM TP 198 P52               696800200000000
0000067207CAPA TRAVESSEIRO PIUME                  696500200000000
0000067208TC SUPERP DUO VISCO TP188 P52           696900200000000
0000067209TC SUPERP DUO VISCO TP198 P52           697000200000000
0000067210TC GOLD ULTRAG PILL P52                 697100200000000
0000067211TC ORION TP 188 P52                     697200200000000
0000067212TC ORION TP 198 P52                     697300200000000
0000067213TC ORION TP 203 P52                     697400200000000
0000067214TC ORION FX P52                         697500200000000
0000067215TC BELLONA TP 188 P52                   697600200000000
0000067216TC BELLONA TP 198 P52                   697700200000000
0000067218TC ELEGANT SUP 17 TP188 P52             697900200000000
0000067219TC ELEGANT SUP 17 TP198P52              698000200000000
0000067220TC ELEGANT SUP 17 TP203 P52             698100200000000
0000067221TC COMFORT PRO SPR TP18 P52             698200200000000
0000067222TC COMFORT PRO SPR TP198 P52            698300200000000
0000067223TC COMFORT PRO SPR FX P52               698400200000000
0000067224TC REVITALE SPR TP188 P52               698500200000000
0000067225TC REVITALE SPR TP198P52                698600200000000
0000067226TC PHYS MEGA RESIS FX P52               698700200000000
0000067227TC CLASSIC HOME SPR TP188 P52           698800200000000
0000067228TC CLASSIC HOME SPR TP198 P52           698900200000000
0000067230TC BORD PATHERNON TP188 P52             699100200000000
0000067231TC BORD PATHERNON TP198 P52             699200200000000
0000067237TC PRIMAV CINZA TP188 P52               699800200000000
0000067238TC PRIMAV CINZA TP 198 P52              699900200000000
0000067239TC FREEMONT FX P52                      300000200000000
0000067240TC FREEMONT PILL P52                    300100200000000
0000067241TC SUPER BIBLOS TP188 P52               300200200000000
0000067242TC SUPER BIBLOS TP198 P52               300300200000000
0000067243TC SUPER BIBLOS FX P52                  300400200000000
0000067244TC SUPERP DUO VISCO TP203 P52           303100200000000
0000067245TC PHYSICAL POCKET TP198 P52            303200200000000
0000067246TC AIRTECH SPRINGPOC TP 188             305500200000000
0000067247TC AIRTECH SPRINGPOC TP 198             305600200000000
0000067248TC CJG TRIUNO TP 188                    305200200000000
0000067249TC AIRTECH PROGR TP 188                 305700200000000
0000067250TC AIRTECH PROGRES TP 198               305800200000000
0000067251TC VENTURA SUP TP 188                   305300200000000
0000067252TC VENTURA SUP TP 198                   305400200000000
0000067253TC MAGESTIC POCK TP 188 P52             310800200000000
0000067254TC MAGESTIC POCK TP 198 P52             310900200000000
0000067255TC NAGNYFIC TP 188 P52                  310400200000000
0000067256TC MAGNYFIC TP 198 P52                  310500200000000
0000067257TC MAGNYFIC FX 1 P52                    310600200000000
0000067258TC MAGNYFIC FX 2 P52                    310700200000000
0000067259TC FREEDOM TP 188 P52                   309900200000000
0000067260TC FREEDOM TP 198 P52                   310000200000000
0000067261TC FREEDOM TP 203 P52                   310100200000000
0000067262TC FREEDOM FX P52                       310200200000000
0000067263TC FREEDOM PILL P52                     310300200000000
0000067264TC MALHA PARNAZO TP 188 P52             311000200000000
0000067265TC MALAHA PARNAZO TP 198 P52            311100200000000
0000067266TC PARNAZO PILL TOP P52                 311200200000000
0000067267TC CAPRI TP 188 P52                     311300200000000
0000067268TC CAPRI TP 198 P52                     311400200000000
0000067269TC HARMINY D20 FX P52                   311500200000000
0000067270TC TREVISO TP 188 P52                   311600200000000
0000067271TC TREVISO TP 198 P52                   311700200000000
0000067274TC MASTER SPR FX P52                    312000200000000
0000067275TC DIAMOND VISCO TP 188 P52             312100200000000
0000067276TC DIAMOND VISCO TP 198 P52             312200200000000
0000067277TC VIVACE TP 188 P52                    313200200000000
0000067278TC VIVACE TP 198 P52                    313300200000000
0000067279TC SEDUTION TP 188 P52                  313000200000000
0000067280TC SEDUTION TP 198 P52                  313100200000000
0000067281CAPA P/REFIL ALMOF 50X50                313500200000000
0000067282TC CJG ROBUST TP 188 P52                313400200000000
0000067283TC ROMANZZA SUPERP TP188 P52            313600200000000
0000067284TC ROMANZZA SUPERP TP198 P52            313700200000000
0000067285TC PHYS ULTRA RESIS FX P52              313800200000000
0000067286TC REVITALE SUPERP TP188 P52            313900200000000
0000067287TC REVITALE SUPERP TP198 P52            314000200000000
0000067290TC LIBERTY 17 FX P52                    314300200000000
0000067291TC CAMA POCK PRO SAUD FX P52            314400200000000
0000067292TC PRO VIDA SUP TP188 P52               314500200000000
0000067293TC PRO VIDA SUP TP198 P52               314600200000000
0000067294TC PRO VIDA SUP TP203 P52               314700200000000
0000067297TC POCKET DREAM FX P52                  315000200000000
0000067298TC DREAM SUPER TP 188 P52               315100200000000
0000067299TC DREAM SUPER TP 198 P52               315200200000000
0000067300TC LIBERTY FX P52                       315300200000000
0000067301TC MAGESTIC POCK TP 203 P52             318400200000000
0000067302TC BLACK POCK SYST FX P52               318500200000000
0000067303TC CLASSIC GOLD TP 188 P52              318600200000000
0000067305TC SONOCRIM TP 188 P52                  318800200000000
0000067306TC SONOCRIM TP 198 P52                  318900200000000
0000067307TC EVIDENCCE SPR TP 188 P52             319000200000000
0000067308TC EVIDENCCE SPR TP 198 P52             319100200000000
0000067309TC MANHATAN TP P52                      319200200000000
0000067310TC FLORAL VINHO TP P52                  319300200000000
0000067311TC LIGHT D28 FX P52                     319400200000000
0000067312TC LIGHT POCK TP 188 P52                319500200000000
0000067313TC LIGHT POCK TP 198 P52                319600200000000
0000067314TC MAESTRO FX P52                       319700200000000
0000067315TC PHYS MEGA RES TP 188 P52             319800200000000
0000067316TC PHYS MEGA RES TP 198 P52             319900200000000
0000067317TC MATELADO 180 FIOS                    317800200000000
0000067318TC CANNES D33 TP 188                    321100200000000
0000067319TC CANNES D33 FX                        321200200000000
0000067320TC CANNES D26 TP 188                    321300200000000
0000067321TC CANNES D26 FX                        321400200000000
0000067322TC ELEGANCE D45 FX                      321500200000000
0000067323TC ELEGANCE D45 TP 188                  321600200000000
0000067324TC CJG TURIM SPR TP 188                 321700200000000
0000067325TC ALLEGRO SPR TP 188                   321800200000000
0000067326TC ALLEGRO SPR TP 198                   321900200000000
0000067327TC ALLEGRO SPR FX01                     322000200000000
0000067328TC ALLEGRO SPR FX02                     322100200000000
0000067329TC NEW MAGESTIC TP 188                  322200200000000
0000067330TC NEW MAGESTIC TP 198                  322300200000000
0000067331TC NEW MAGESTIC TP 203                  322400200000000
0000067332TC NEW MAGESTIC FX01                    322500200000000
0000067333TC NEW MAGESTIC FX02                    322600200000000
0000067334TC VILLAGIO ORTOP TP 188                322700200000000
0000067335TC VILLAGIO ORTOP TP 198                322800200000000
0000067336TC VILLAGIO ORTOP FX                    322900200000000
0000067337TC TURIM ORTHOP TP 188                  323000200000000
0000067338TC TURIM ORTHOP FX                      323100200000000
0000067339TC PHISY SPR F/PIL P52                  323400200000000
0000067340TC DUETO BOX TP 188 P52                 323500200000000
0000067341TC TP CJG BOX ORTOB SPR P52             323600200000000
0000067342TC ORTHOTEL TP 188 P52                  323700200000000
0000067343TC ORTHOTEL TP 198 P52                  323800200000000
0000067344TC ORTHOTEL TP 200 P52                  323900200000000
0000067345TC ORTHOTEL FX P52                      324000200000000
0000067346TC MASTER SUPERP TP 188 P52             324100200000000
0000067347TC MASTER SUPERP TP 198 P52             324200200000000
0000067348TC PRO SAUDE SPR TP 188 P52             324300200000000
0000067349TC PRO SAUDE SPR TP198 P52              324400200000000
0000067350TC POCK PRO SAUDE SPR FX P52            324500200000000
0000067351TC UNION NANOL VAZ TP P52               324600200000000
0000067352TC CAMA BOX BALCK TP188 P52             324700200000000
0000067353TC SUBLIME BORD TP 188 P52              324800200000000
0000067354TC BAU SPR BLACK TP188 P52              324900200000000
0000067355TC CAMA UNION ORTO TP P52               325000200000000
0000067356TC NIGHT SPR TP 188                     329500200000000
0000067357TC NIGHT SPR TP 198                     329600200000000
0000067358TC COMFORT D33 TP 188                   329700200000000
0000067359TC COMFORT D26 TP 188                   329800200000000
0000067360TC CJG DARK TP 188                      329900200000000
0000067361TC DREAM SUPERP TP 188                  329300200000000
0000067362TC DREAM SUPERP TP 198                  329400200000000
0000067363TC CJG DREAM SUPERP TP188               330000200000000
0000067364TC ANTIDER BORD 198 P52                 330600200000000
0000067365TC ANTIDER BORD 188 P52                 330500200000000
0000067366CAPA TRAV HUG 17                        331700200000000
0000067368REFIL TRAV KING PREM 17                 331900200000000
0000067369CAPA TRAV KING PREM 17                  331800200000000
0000067370REFIL TRAV CONFORT REG 17               332100200000000
0000067371CAPA CONFORT REG 17                     332000000000000
0000067372CAPA TRAV CORPORIS                      389100200000000
0000067373REFIL TRAV CORPORIS                     389200200000000
0000067377REFIL TRAV HUG 2017                     331600200000000
0000067378CAPA EDRED MIC BCO 220X240 EXP          335600200000000
0000067379CAPA EDRED MIC BCO 240X260 EXP          335700200000000
0000067380CAPA EDRED MIC BCO 160X240 EXP          335500200000000
0000067381CAPA ALMOF ROL MICR 1,55 EXP            334600200000000
0000067382CAPA ALMOF ROL MICR 135 EXP             334800200000000
0000067383CAPA ALMOF ROL MICR 085 EXP             334900200000000
0000067384REFIL ALMOF ROL 085 EXP                 335000200000000
0000067385REFIL ALMF ROL 135 EXP                  335100200000000
0000067386REFIL ALMOF ROL 1,55 EXP                334700200000000
0000067387CAPA TRAV ROYAL PILLOW EXP              336700200000000
0000067388CAPA TRAV HUG EXP                       333000200000000
0000067389REFIL TRAV HUG EXP                      333100200000000
0000067390CAPA TRAV KING PREMIUM 17 EXP           336300200000000
0000067391REFIL KING PREMIUM  50X70 EXP           336400200000000
0000067392CAPA TRAV ESSENCE 50X90 EXP             336900200000000
0000067393CAPA TRAV ONE MALHA EXP                 333300200000000
0000067394CAPA TRAV SEIS ESTRELAS EXP             333500200000000
0000067395CAPA TRAV CONF REG EXP                  333700200000000
0000067396REFIL TRAV CONF REG EXP                 333800200000000
0000067397CAPA REFIL P/ALMOF C&C                  346300200000000
0000067398CAPA TRAV FASCINIO                      346500200000000
0000067399TC MAXI CONFORTO D45 TP188              347400200000000
0000067400TC MAXI CONFORTO D45 TP198              347500200000000
0000067401TC PHYS MEGA RES TP203 P52              347600200000000
0000067402CAPA TRAV FLEX PREMIUM                  350700200000000
0000067403CAPA TRAV BIG BODY                      351300200000000
0000067404CAPA TRAV SOFT BODY                     389900200000000
0000067405TC LIGHT D45 SEL 2012 TP198             390300200000000
0000067406TC DREAM SUPER TP 203 P52               390900200000000
0000067407TC LIGHT D33(INMETRO)TP 198             390400200000000
0000067408TC ELEGANT NANOL TP 203 P52             391000200000000
0000067409REFIL ALL PET CAMA 45X30                391600200000000
0000067410REFIL ALL PET CAMA 55X40                391700200000000
0000067411REFIL ALL PET CAMA 65X50                391800200000000
0000067412CAPA TRAV PERCAL 180 ESPACE             392800200000000
0000067413CAPA TRAV PERCAL 200 ULTRA              392700200000000
0000067414CAPA TRAV VISCO SKY                     399100200000000
0000067416CAPA TRAV LATEX SPAZIO SLIM             399300200000000
0000067417CAPA TRAV VISCO SKY SLIM                399400200000000
0000067418CAPA TRAV PERCAL 180(REFIL)             227000200000000
0000067419CAPA TRAV 140 FIOS(REFIL)               226800200000000
0000067420CAPA TRAV MICROF (REFIL)                226900200000000
0000067421CAPA TRAV SPAZIO/SKY                    229900200000000
0000067422CAPA TRAV SPAZIO/SKY SLIM               230000200000000
0000067423TC LIGHT NANO 17 TP 203 P52             233200200000000
0000067424TC LIGHT D45 SEL TP 203                 233300200000000
0000067425TC ORTHOTEL SUPERLUXO TP 203            247900200000000
0000067426TC VENT DUOZONE TP 188                  404300200000000
0000067427TC VENTURA DUOZONE TP188 INF            404400200000000
0000067428TC VENTURA DUOZONE TP 198               404500200000000
0000067429TC VENTURA DUOZONE TP198 INF            404600200000000
0000067430TC PETRUS SUPERP 20 FX                  404700200000000
0000067431TC PETRUS SUPERP 20 TP188               404800200000000
0000067432TC PETRUS SUPERP 20 TP198               404900200000000
0000067433TC PETRUS SUPERP 20 TP203               405000200000000
0000067434CAPA ENCOSTO ERGONOMICO                 479100200000000
0000067436CAPA TRAV ESSENCE PLUS                  807700200000000
0000067437TC NEW TNT BORD 1,98                    812200200000000
0000067438TC BORD JAC BOL PRT TP200               825200200000000
0000067439TC BORD JAC BOL PRT TP188               825000200000000
0000067440TC BORD JAC BOL PRT TP198               825100200000000
0000067441TC BORD JAC BOL PRT TP203               825300200000000
0000067442TC BORD JAC CINZA TP203                 824900200000000
0000067443TC BORD JAC CINZA TP188                 824600200000000
0000067444TC BORD JAC CINZA TP198                 824700200000000
0000067445TC BORD JAC CINZA TP200                 824800200000000
0000067446TC BORD VELUDO CABEC CZ                 834600200000000
0000067447TC BORD VELUDO CABEC MR                 834800200000000
0000067448TC BROD VELUDO CABEC BG                 834700200000000
0000067449TC BORD LINHO CABEC GRY                 835000200000000
0000067450TC BORD VELUDO CABEC PRT                834900200000000
0000067451TC BORD LINHO CABEC BRW                 835200200000000
0000067452TC BORD LINHO CABEC CRM                 835100200000000
0000067453TC BORD LINHO CABEC PRT                 835300200000000
0000067454CAPA TRAV RELAX&CARE                    845500200000000
0000067455TC BORD JAC POLI INTEN TP188            860500200000000
0000067456TC BORD JAC POLI INTEN TP198            860600200000000
0000067457TC BORD FX INVERT                       859000200000000
0000067458CAPA TRAV AMORE ROL                     860400200000000
0000067459CAPA TRAV SEIS ESTRELAS ROL             860300200000000
0000067969TC ISO SUPERP TP 188                    354500200000000
0000067970TC ISO SUPERPOCK TP 198                 354600200000000
0000067971TC ISO 6.0 TP 188                       354700200000000
0000067972TC ISO 6.0 TP 198                       354800200000000
0000067973TC CONFORT TP 190                       229300200000000
0000067974TC CONFORT TP 200                       229400200000000
0000067975TC EXTRA FIRME TP 190                   229500200000000
0000067976TC EXTRA FIRME TP 200                   229600200000000
0000067977TC FIRME SEL TP 190                     229700200000000
0000067978TC FIRME SEL TP 200                     229800200000000
0000067979TC MIDLLE SUPERP TP 188                 240600200000000
0000067980TC MIDDLE SUPERP TP 198                 240700200000000
0000067981TC MIDDLE SUPERP TP 203                 240800200000000
0000067982TC MIDDLE SUPERP FX                     240900200000000
0000067983TC SENSE TP 188                         240200200000000
0000067984TC SENSE TP 198                         240300200000000
0000067985TC SENSE TP 203                         240400200000000
0000067986TC SENSE FX                             240500200000000
0000067987TC FAMILY TP 200                        242500200000000
0000067988TC FAMILY TP 210                        242600200000000
0000067989TC COLCHAO CONJUG MAXIMO                242800200000000
0000067990TC ATLANTICA TP 203                     242900200000000
0000067991CAPA TRAV NOITES PERFEITAS              244200200000000
0000067992CAPA TRAV FIBER FLOCK                   244700200000000
0000067993REFIL MICROF TRAV FIBER FLOCK           244800200000000
0000067994REFIL TNT TRAV FIBER FLOCK              244900200000000
0000067995TC SUPERP PRO SAUDE SPR FX              257300200000000
0000067996TC SUPERP PRO SAUDE SPR TP 188          257400200000000
0000067997TC SUPERP PRO SAUDE SPR TP 198          257500200000000
0000067998TC SUPERP PRO SAUDE SPR TP 203          257600200000000
0000067999TC ORTOP PREMIUM 20 TP 188              257800200000000
0000068000TC ORTOP PREMIUM 20 TP 198              257900200000000
0000068001TC ISO SUPERPOCK TP190                  297600200000000
0000068002TC AIRTECH SPRINGPOCK TP190             297400200000000
0000068003TC TNT BORD TP190                       297500200000000
0000068004TC PHYS NANO 20 TP188                   297200200000000
0000068005TC PHYS NANO 20 TP198                   297300200000000
0000068801TC MASTER SUPERPOCK 20 TP 188           256900200000000
0000068802TC MASTER SUPERPOCK 20 TP 198           257000200000000
0000068803TC MASTER SUPERPOCK 20 TP 203           257100200000000
0000068804TC MASTER NANO 20 TP 188                256500200000000
0000068805TC MASTER NANO 20 TP 198                256600200000000
0000068806TC MASTER NANO 20 TP 203                256700200000000
0000068807TC CJ UNION SPRING TP 188               274900200000000
0000068808TC PET LINHO CINZA                      276100200000000
0000068809CAPA TRAV ESSENCE MAX 50X90             278000200000000
0000068810CAPA TRAV ESSENCE                       400100200000000
0000068811REFIL ALMOF ROLINHO 200 FIOS            282700200000000
0000068812CAPA ALMOF ROLINHO 200F 050             282800200000000
0000068813TC MATELADO 200 FIOS                    282900200000000
0000068814CAPA TRAV GIANT PILLOW                  290700200000000
0000068815TC CONFORTAVEL TAMP 198                 291400200000000
0000068816CAPA TRAV KING PREMIUM 20 EXP           403400200000000
0000068817REFIL TRAV KING PREMIUM 20 EXP          403500200000000
0000068818TC AIRTECH PROGRES TP203                405900200000000
0000068819TC AIRTECH SPRINGPOC TP203              406000200000000
0000068820TC TNT BORD TP 203                      405600200000000
0000068821TC ISO SUPERPOCKET TP203                405700200000000
0000068822TC ISO NANOLASTIC TP203                 405800200000000
0000068823TC PHYSICAL HIPER TP188                 412600200000000
0000068824TC PHYSICAL HIPER TP198                 412700200000000
0000068825TC PHYSICAL SUPER H TP188               412800200000000
0000068826TC PHYSICAL SUPER H TP198               412900200000000
0000068827TC AIRTECH 1.5.0 TP188                  417100200000000
0000068828TC AIRTECH 1.5.0 TP198                  417200200000000
0000068829TC AIRTECH 1.0.0 TP188                  417300200000000
0000068830TC AIRTECH 1.0.0 TP198                  417400200000000
0000068831TC LINHO PRETO FX                       418700200000000
0000068835TC FLEXFOAM TP188                       416000200000000
0000068836TC FLEXFOAM TP198                       416100200000000
0000068837TC FLEXFOAM TP203                       416200200000000
0000068838TC LIGHT BONNEL TP 203                  420300200000000
0000068839REFIL PET RESID 65X50                   421100200000000
0000068840REFIL PET RESID 45X30                   421200200000000
0000068841TC PRIME TP 200                         420900200000000
0000068843CAPA TRAV FLEX PREMIUM                  425700200000000
0000068844TC TELA PRETO FX                        429800200000000
0000068845TC ORTOP PREM 22 TP198                  435600200000000
0000068846TC ORTOP PREM 22 TP188                  435700200000000
0000068847TC BORD CJG TRIUNO TP198                446700200000000
0000068848TC BORD CJG TRIUNO TP203                446800200000000
0000068849CAPA TRAV CLOUD NINE                    445800200000000
0000068850CAPA TRAV SOFTFLEX                      446400200000000
0000068851CAPA TRAV SPACIAL                       446200200000000
0000068852CAPA TRAV UPPER                         446000200000000
0000068853TC AIRTECH 1.0.0 TP203                  465800200000000
0000068854CAPA SUPORTE ANATOMICO                  479200200000000
0000069966TC SANTORINI SUP TP 198                 224500200000000
0000069967TC CJG EVORA ORTOP TP                   200100200000000
0000069969TC ATENAS SUPERP TP 188                 200300200000000
0000069971TC MICONOS SPR TP 188                   399800200000000
0000069972TC MICONOS SPR TP 198                   206500200000000
0000069973TC ISO NANOLASTIC TP 188                354900200000000
0000069974TC ISO NANOLASTIC TP 198                355000200000000
0000069975TC ISO 1.5.0 TP 188                     355100200000000
0000069976TC FASH ORTO NANOL TP 188               355500200000000
0000069977TC ISO 1.0.0 TP 188                     355300300000000
0000069978TC ISO 1.0.0 TP 198                     355400200000000
0000069979TC FASH ORTO NANOL TP 188               355500200000000
0000069980TC FASH ORTO NANOL TP 198               355600200000000
0000069981TC FASH ORTO NANOL FX                   355700200000000
0000069982TC FASHION ORTO SUPERP TP188            355800200000000
0000069983TC FASHION ORTO SUPER TP198             355900200000000
0000069984TC FASH ORTO SUPERP FX                  356000200000000
0000069985TC FASH ORTO 6.0 TP188                  356100200000000
0000069986TC FASH ORTO 6.0 TP 198                 356200300000000
0000069987TC SUPORT 33 TP                         375700200000000
0000069988TC CJG UNI ORTOP TP                     376700200000000
0000069989TC FAMILY FX                            376900200000000
0000069990TC FAMILY TP 198                        377500200000000
0000069991TC FAMILY TP 188                        377600200000000
0000069992TC NIMBUS TP 188                        377800200000000
0000069993TC NIMBUS TP 198                        377900200000000
0000069994TC EXTRA FIRME TP 203                   379000200000000
0000069995TC PRO SAUDE ULT FIRM TP 203            380800200000000
0000069996TC ETERNITY TP 1,98                     386400200000000
0000069997TC TNT BORD TP 188                      386500200000000
0000069998TC TNT BORD TP 198                      386600200000000
0000069999REFIL TRAV SOFT BODY                    389800200000000
0000109162PLUMA SINT 101/700 AT30                 435800300000000
0000110152TC CRU JAC ZIMAG 103 50PES50PP          798700200000000
0000110153TC CRU JAC ALEGR ZIMAG 109 50PES50PP    798800200000000
0000797040TC CRU AMOST PLANO                      624600200000000
0000797041TC CRU AMOST JAC                        624600200000000
0000801182TC CRU JAC HOTEL 4789 LG                798900200000000
0000905152TC CRU JAC PREDR 2 65CV35PP             799000200000000
0000909071TC CRU JAC SOFT BAMBOO                  772900200000000
0000921235TC CRU MALHA TRACEJADO CINZA            840000200000000
0000921236TC CRU MALHA PIXEL PRETO                840100200000000
0000921237TC CRU MALAH GALAXIA SPIRALE            840200200000000
0000921238TC CRU MALHA FLORAL FREEDOM             840300200000000
0000921239TC CRU MALHA A07621 LOSANGO BR          840400200000000
0000921300TC CRU MALHA(AMOSTRAS)                  795303000000000
0000921301TC CRU MALHA AMOSTRA PES                376100200000000
0000921347TEC CRU MALHA LIBERTY                   756600200000000
0000921350TC CRU MALHA BELLONA FAIXA              798500200000000
0000921371TEC CRU MALHA OURO SPR                  756700200000000
0000921394TEC CRU MALHA LATEX                     756800200000000
0000921402TEC CRU MALHA ORTHOPUR                  756900200000000
0000921600TEC CRU MALHA LUCK                      757000200000000
0000921601TEC CRU MALHA ROSAS 2,15                761300200000000
0000921603TC CRU MALHA ONDAS MAYER VINHO          376300200000000
0000921605TEC CRU MALHA LOSANGUINHO               757200200000000
0000921620TC CRU MALHA FLORAL FREEDOM             643300200000000
0000921623TEC CRU MALHA DUO VIS                   757300200000000
0000921661TC CRU MALHA FLORAL LINE                613900200000000
0000921662TC CRU MALHA ESP PERSONAL               613700200000000
0000921671TC CRU MALHA COROA REALEZA              638800200000000
0000921672TC CRU MALHA PIXEL CARAMELO             347900200000000
0000921674TC CRU MALHA PIXEL PTO                  638600200000000
0000921675TC CRU MALHA GALAXIA SPIRATE            638700200000000
0000921676TC CRU MALHA CUBO GELO 3D DOURA         243803000000000
0000921693TC CRU MALHA LOSANG BCO SOFT            347100200000000
0000921703TC CRU ARABESCOS BLACK                  799900200000000
0000921707TC CRU MALHA COLMEIA MEL                347800200000000
0000921737TC CRU MALHA ONDAS MAYER                376300200000000
0000921740TC CRU MALHA DIAGONAL                   309500200000000
0000921741TC CRU MALHA DIAG PRETO                 304400200000000
0000921742TC CRU MALHA DIAG VINHO                 304800200000000
0000921743TC CRU MALHA DIAG MOSTARDA              304700200000000
0000921744TC CRU MALHA DIAG MARINHO               304600200000000
0000921745TC CRU MALHA DIAG GELO                  304500200000000
0000921750TC CRU DREAM MARRON                     331000200000000
0000921800TC CRU MALHA BABY DREAM MEL             383500200000000
0000921801TC CRU MALHA BABY DREAM PTO             383400200000000
0000921820TC CRU MALHA OURO SPR CINZA             233000200000000
0000921821TC CRU MALHA LIGHT BCO                  233400200000000
0000921822TC CRU MALHA REVERSE CINZA              232900200000000
0000921824TC CRU MALHA LOSANGUINHO CINZA          243200200000000
0000921828TC CRU MALHA PLANET                     278300200000000
0000921909TC CRU MALHA PRO SAUDE SP BEGE          433600200000000
0000921910TC CRU MALHA LISTR CINZA                433500200000000
0000921923TC CRU MALHA NEW LOSANG CINZA           451100200000000
0000921924TC CRU MALHA TRACEJADO AREIA            467700200000000
0000921938TC CRU MALHA ROSEIRA BEGE               883600200000000
0001060000TC CRU 106 GRS (130)                    470600200000000
0001300000TC CRU 130 GRS CURTO 100 PES            742703000000000
0001310000TC CRU 130 GRS LARGO 100 PES            742803000000000
0001320000TC CRU 132 GRS CURTO 1,98               804600200000000
0001400000TC CRU 140 GRS CURTO 100 PES            742903000000000
0001410000TC CRU 140 GRS LARGO                    309600200000000
0001600000TC CRU 160 GRS CURTO 100PES             743003000000000
0001610000TC CRU 160 GRS LARGO 100PES             743103000000000
0001690132TC CRU TULIPA ROSQ PT C 100PES          747703000000000
0001690150TC CRU TULIPA RISQ PT L 100PES          747803000000000
0001710901TC CRU MAGESTIC PTO LARGO               683300200000000
0001710913TC CRU RISCADO CINZA LARGO              420200200000000
0001710918TC CRU MAGESTIC AZUL PRAIA              690900200000000
0001750099TC CRU LIST DUO AZUL 58PP42PES          772700200000000
0001750901TC CRU MAGESTIC PRET 61PP39PES          751303000000000
0001750902TC CRU MAGESTIC PRATA                   633900200000000
0001750903TC CRU MAGESTIC 61PP30PES PT/B          749003000000000
0001750904TC CRU MAGEST AZUL M 61PP39PES          751303000000000
0001750905TC CRU MAGEST MARR CHOCOL               607803000000000
0001750908TC CRU LIST DUP PTO 58PP42PES           771600200000000
0001750909TC CRU LIST DUO AZUL 58PP42PES          772700200000000
0001750910TC CRU RISCADO VINHO                    631900200000000
0001750911TC CRU RISCADO PRETO                    632000200000000
0001750912TC CRU RISCADO AZUL                     632100200000000
0001750913TC CRU RISCADO CINZA                    632200200000000
0001750914TC CRU MAGESTIC CINZA CORDOBA           639300200000000
0001750915TC CRU MAGESTIC OCRE BRONZE             639400200000000
0001750916TC CRU MAGESTIC AZUL CREPUSCULO         639500200000000
0001750917TC CRU MAGESTIC AZUL ANIL               639600200000000
0001750918TC CRU MAGESTIC AZUL PRAIA              639700200000000
0001750919TC CRU MAGESTIC AZUL FORTE              639800200000000
0001750920TC CRU MAGEST PLUS MARRON               325300200000000
0001750921TC CRU LISTR DUPL MARRON                325400200000000
0001750922TC CRU LISTRADO PTO/BCO                 325200200000000
0001750924TC CRU LISTRADO MARROM                  856200200000000
0001750925TC CRU LISTRADO CINZA CLARO             856300200000000
0001790001TC CRU ORTOFIO 170 GRS TRAV ALV 2,06    749403000000000
0001990005TC CRU POLIESTER PTO LISO FT            881300200000000
0001990101TC CRU LINHO CINZA                      852400200000000
0001990102TC CRU LINHO MARROM                     852500200000000
0001990103TC CRU LINHO PRETO                      852600200000000
0001990104TC CRU LINHO BEGE                       852700200000000
0002090003TC CRU ORTOFIO 200 100% ALG             751603000000000
0002090004TC CRU ORTOFIO 200 100% ALG             751603000000000
0002090005TC CRU PRO SAUDE D45 100CO              751603000000000
0002090006TC CRU ANTI DERRAP 75PES25CO            749203000000000
0002090007TC CRU 200 GRS 100% ALG 2,07            748803000000000
0002090010TC CRU ORTOFIO 200 GRS MAQ ROSA 2,14    750903000000000
0002090011TC CRU ORTOFIO 200 GRS MAQ 2,14         751003000000000
0002090013TC CRU ORTOFIO 200 GRS MAQ BCO 2,14     751103000000000
0002090017TC ANTI DERR LISTR MARRON               623303000000000
0002090020TC CRU GORGURINHO PTO                   421303000000000
0002190200TC CRU 210 GRS PES/CO 2,30              748003000000000
0002190205TC CRU DETROIT ALLF 53PES47CO           747903000000000
0002190206TC CRU MISTO BEGE                       242200200000000
0002690042TC CRU JAC SOPHISTIC ELEGANCIA 2,14     771703000000000
0002690044TC CRU JAC MAGESTIC MAESTRO             772600200000000
0002690142TC CRU JAC SOPHIST ELEGANC              609103000000000
0002690147TC CRU JAC SOPHIST EVIDENCE             620103000000000
0002690148TC CRU JAC ECO MAGNYFIC                 620203000000000
0002690149TC CRU JAC VENEZA SOFT BCO              634000200000000
0002690150TC CRU JAC MANDALA PRETO                663803000000000
0002690151TC CRU JAC MANDALA BRANCO               663903000000000
0002690152TC CRU JAC ROSAS PRETO                  664003000000000
0002690153TC CRU JAC ROSAS BRANCO                 664103000000000
0002690154TC CRU JAC BUQUE PTO                    664203000000000
0002690155TC CRU JAC BUQUE BCO                    664303000000000
